:020000040800F2
:1000000000000420118700088D0A0008930A0008E8
:10001000990A00089F0A0008A50A000800000000CD
:10002000000000000000000000000000AB0A000813
:10003000B90A000800000000C70A0008D50A000835
:1000400061870008618700086187000861870008F0
:1000500061870008618700086187000861870008E0
:1000600061870008618700086187000861870008D0
:1000700061870008618700086187000861870008C0
:1000800061870008618700086187000861870008B0
:1000900061870008618700086187000861870008A0
:1000A0006187000861870008618700086187000890
:1000B0006187000861870008618700086187000880
:1000C0006187000861870008618700086187000870
:1000D0006187000861870008618700086187000860
:1000E0006187000861870008618700086187000850
:1000F0006187000861870008618700086187000840
:10010000618700086187000861870008618700082F
:10011000618700086187000861870008618700081F
:10012000618700086187000861870008618700080F
:1001300061870008618700086187000861870008FF
:10014000618700086187000861870008E10A0008EC
:1001500061870008618700086187000861870008DF
:1001600061870008618700086187000861870008CF
:1001700061870008618700086187000800000000AF
:1001800061870008618700086187000861870008AF
:10019000618700086187000861870008618700089F
:0C01A00061870008618700080000000073
:1001B00010B5054C237833B9044B13B10448AFF3A1
:1001C00000800123237010BD90000020000000007B
:1001D000009A000808B5034B1BB103490348AFF36D
:1001E000008008BD0000000094000020009A000874
:1001F000034613F8012B002AFBD1181A0138704767
:1002000001F0FF01102A2BDB10F0070F08D010F8C7
:10021000013B013A8B422DD010F0070F42B3F6D1CB
:10022000F0B441EA012141EA014122F007047FF0E4
:1002300000070023F0E80256083C85EA010586EA3B
:10024000010685FA47F5A3FA87F586FA47F6A5FA77
:1002500087F68EB9EED1F0BC01F0FF0102F0070283
:1002600032B110F8013B013A83EA010313B1F8D12E
:100270000020704701387047002D06BF354603380F
:10028000073815F0010F07D1013015F4807F02BF48
:10029000013015F4C03F0130F0BC0138704700BF99
:1002A00053B94AB9002908BF00281CBF4FF0FF31DD
:1002B0004FF0FF3000F07AB9ADF1080C6DE904CED3
:1002C00000F006F8DDF804E0DDE9022304B0704731
:1002D0002DE9F0478C460D460446089E002B51D16F
:1002E0008A4217466DD9B2FA82FEBEF1000F0BD0DA
:1002F000CEF1200C01FA0EF520FA0CFC02FA0EF7F2
:100300004CEA050C00FA0EF44FEA174A250CBCFB28
:10031000FAF81FFA87F90AFB18CC45EA0C4508FBE6
:1003200009F3AB420AD9ED1908F1FF3280F02381BD
:10033000AB4240F22081A8F102083D44ED1AA4B27C
:10034000B5FBFAF00AFB105544EA054400FB09F935
:10035000A14509D9E41900F1FF3380F00A81A145D4
:1003600040F2078102383C44A4EB090440EA08400B
:100370000021002E61D024FA0EF400233460736053
:10038000BDE8F0878B4207D9002E54D0002186E8C3
:1003900021000846BDE8F087B3FA83F1002940F058
:1003A0008E80AB4202D3824200F2FA80841A65EB5F
:1003B00003050120AC46002E3FD086E81010BDE8B2
:1003C000F08712B90127B7FBF2F7B7FA87FEBEF143
:1003D000000F34D1EB1B3A0C1FFA87FC0121B3FB51
:1003E000F2F8250C02FB183345EA03450CFB08F331
:1003F000AB4207D9ED1908F1FF3002D2AB4200F24F
:10040000D1808046ED1AA3B2B5FBF2F002FB105585
:1004100043EA05440CFB00FCA44507D9E41900F1AC
:10042000FF3302D2A44500F2B8801846A4EB0C04B6
:1004300040EA08409DE731463046BDE8F087CEF1FE
:10044000200405FA0EF307FA0EF720FA04F83A0C26
:1004500025FA04F448EA0308B4FBF2F14FEA184520
:1004600002FB11441FFA87FC45EA044501FB0CF32B
:10047000AB4200FA0EF409D9ED1901F1FF3080F01A
:100480008A80AB4240F2878002393D44EB1A1FFA62
:1004900088F5B3FBF2F002FB103345EA034500FB9D
:1004A0000CF3AB4207D9ED1900F1FF386FD2AB4224
:1004B0006DD902383D44EB1A40EA01418FE7C1F1A2
:1004C000200722FA07F88B4005FA01F448EA0303F3
:1004D00020FA07FE4FEA134CFD404EEA040EB5FB2E
:1004E000FCF94FEA1E440CFB19551FFA83F844EA45
:1004F000054509FB08F4AC4202FA01F200FA01FAE0
:1005000008D9ED1809F1FF3043D2AC4241D9A9F125
:1005100002091D442D1B1FFA8EFEB5FBFCF00CFBDF
:1005200010554EEA054400FB08F8A04507D9E41829
:1005300000F1FF3529D2A04527D902381C4440EAF2
:100540000940A4EB0804A0FB02894C45C6464D4671
:1005500015D312D056B1BAEB0E0364EB050404FABE
:1005600007F7CB401F43CC40376074600021BDE8E3
:10057000F0871846F8E69046E0E6C245EAD2B8EBC6
:10058000020E69EB03050138E4E72846D7E7404649
:1005900091E78146BEE7014678E702383C4445E7EB
:1005A000084608E7A8F102083D442BE7704700BF62
:1005B000B0B5A0B004AF7860786805F0D9FEF866F1
:1005C0007B68B3F83033052B2AD17B68B3F82E3320
:1005D00040F61242934223D1FB6EDB7A1A46FB6E41
:1005E0001B7B1946FB6E5B7B1C46FB6E9B7B07F1FE
:1005F0000800039302940191009201231F222349D2
:1006000008F0DAF907F108031846FFF7F1FD034691
:100610009AB207F108014FF47A731D4803F0B8FD50
:100620007B68B3F83033012B2CD17B68B3F82E33C1
:10063000B3F5016F26D1FB6E5B7A1D46FB6E1B7B0B
:100640001A46FB6E5B7B1946FB6E9B7B1C46FB6E62
:10065000DB7B07F1080003930294019100922B4683
:100660003F220A4908F0A8F907F108031846FFF7E6
:10067000BFFD03469AB207F108014FF47A730448AC
:1006800003F086FD00BF7037BD46B0BD189A000864
:10069000BC00002080B500AF00F0BCFA00F014F8F8
:1006A00000F0A2F800F074F807F0EAFC4FF47A7357
:1006B00015220349034803F06BFD07F007FDFCE733
:1006C000C89F0008BC00002080B596B000AF07F1BD
:1006D000140344220021184608F07EF83B4600220D
:1006E0001A605A609A60DA601A614FF4007002F082
:1006F0007FF90346002B01D000F042F902F05AF9CD
:10070000224A224BD3F8903023F01803C2F89030DD
:1007100014237B610123FB610123FB6200233B6304
:1007200090237B630223FB6301233B6405237B64EB
:100730004723BB640223FB6402233B6506237B65DE
:1007400007F11403184602F0C9F90346002B01D043
:1007500000F016F90F233B6003237B609023BB60FE
:100760004FF48063FB6000233B613B460021184649
:1007700002F0CCFD0346002B01D000F001F903F09C
:10078000DFFA00BF5837BD4680BD00BF00100240F1
:1007900080B500AF124B134A1A60114B4FF4E1328F
:1007A0005A600F4B00229A600D4B0022DA600C4B0E
:1007B00000221A610A4B0C225A61094B00229A61ED
:1007C000074B00221A62064B00225A62044803F0CB
:1007D00091FC0346002B01D000F0D2F800BF80BD91
:1007E000BC0000200080004080B58AB000AF07F157
:1007F000140300221A605A609A60DA601A61434A50
:10080000424BDB6C43F00403D364404BDB6C03F0DE
:1008100004033B613B693D4A3C4BDB6C43F0800386
:10082000D3643A4BDB6C03F08003FB60FB68374A10
:10083000364BDB6C43F00203D364344BDB6C03F0C8
:100840000203BB60BB68314A304BDB6C43F04003B2
:10085000D3642E4BDB6C03F040037B607B6802F0BB
:100860002DF92A4A294BDB6C43F00103D364274B53
:10087000DB6C03F001033B603B6800224FF48141D5
:10088000234800F0FFFC00224FF43151214800F0D2
:10089000F9FC4FF400537B614FF48813BB610023D4
:1008A000FB6107F1140319461B4800F059FB4FF494
:1008B00081437B610123BB610023FB6100233B6219
:1008C00007F114031946124800F04AFB4FF4815314
:1008D0007B610023BB610023FB6107F11403194610
:1008E0000C4800F03DFB4FF431537B610123BB61A9
:1008F0000023FB6100233B6207F1140319460548FE
:1009000000F02EFB00BF2837BD4680BD001002401E
:1009100000040048001800480008004880B584B072
:1009200000AF78607B68DBB23B7307F10C010A23F0
:100930000122044803F02CFC7B6818461037BD46A2
:1009400080BD00BFBC00002080B586B000AFF8605D
:10095000B9607A6000237B6109E0BB685A1CBA6009
:100960001B781846FFF7DAFF7B6901337B617A69F0
:100970007B689A42F1DB7B6818461837BD4680BD1C
:1009800080B400AF72B6FEE780B483B000AF0F4A08
:100990000E4B1B6E43F0010313660C4B1B6E03F0F2
:1009A00001037B607B68094A084B9B6D43F08053D1
:1009B0009365064B9B6D03F080533B603B6800BF23
:1009C0000C37BD465DF8047B704700BF0010024045
:1009D00080B5ACB000AF786007F19C0300221A60CC
:1009E0005A609A60DA601A6107F110038C220021C4
:1009F000184607F0F1FE7B681B68224A93423DD1FE
:100A000020233B610023FB6507F11003184602F029
:100A10009FFE0346002B01D0FFF7B2FF1A4A1A4B84
:100A2000DB6D43F00103D365174BDB6D03F001036E
:100A3000FB60FB68144A144BDB6C43F04003D36447
:100A4000114BDB6C03F04003BB60BB6802F036F86F
:100A50000C23C7F89C300223C7F8A0300023C7F846
:100A6000A4300323C7F8A8300823C7F8AC3007F137
:100A70009C0319464FF0904000F072FA00BFB03767
:100A8000BD4680BD008000400010024080B400AF31
:100A9000FEE780B400AFFEE780B400AFFEE780B4AD
:100AA00000AFFEE780B400AFFEE780B400AF00BF48
:100AB000BD465DF8047B704780B400AF00BFBD4603
:100AC0005DF8047B704780B400AF00BFBD465DF8A1
:100AD000047B704780B500AF00F0F0F800BF80BD28
:100AE00080B500AF024800F04BFE00BF80BD00BFE4
:100AF0008805002090B587B000AFF860B9607A60D3
:100B000000237B610AE0BC68631CBB60AFF300801C
:100B10000346DBB223707B6901337B617A697B68B2
:100B20009A42F0DB7B6818461C37BD4690BD00003A
:100B300080B584B000AF7860114B1B68002B02D1E8
:100B40000F4B104A1A600E4B1B68FB600C4B1A6867
:100B50007B6813446A46934207D907F003FE0246B6
:100B60000C2313604FF0FF3306E0054B1A687B68D7
:100B70001344034A1360FB6818461037BD4680BD16
:100B8000AC0000209008002080B483B000AF7860F3
:100B90004FF0FF3318460C37BD465DF8047B7047B5
:100BA00080B483B000AF786039603B684FF4005286
:100BB0005A60002318460C37BD465DF8047B704729
:100BC00080B483B000AF7860012318460C37BD466F
:100BD0005DF8047B704780B485B000AFF860B96001
:100BE0007A60002318461437BD465DF8047B7047D1
:100BF00080B400AF064A064BD3F8883043F4700344
:100C0000C2F8883000BFBD465DF8047B704700BF66
:100C100000ED00E080B582B000AF0023FB7103203F
:100C200000F05CF9002000F00DF80346002B02D024
:100C30000123FB7101E0FFF7A7FEFB791846083797
:100C4000BD4680BD80B584B000AF78600023FB73E3
:100C5000174B1B78002B23D0164B1A68144B1B78AC
:100C600019464FF47A73B3FBF1F3B2FBF3F3184672
:100C700000F069F90346002B0FD17B680F2B09D8D0
:100C8000002279684FF0FF3000F033F90A4A7B68A0
:100C9000136007E00123FB7304E00123FB7301E011
:100CA0000123FB73FB7B18461037BD4680BD00BF98
:100CB00008000020000000200400002080B400AFE5
:100CC000064B1B781A46064B1B681344044A1360F4
:100CD00000BFBD465DF8047B704700BF08000020E0
:100CE0004001002080B400AF034B1B681846BD468E
:100CF0005DF8047B704700BF4001002080B584B0E0
:100D000000AF7860FFF7EEFFB8607B68FB60FB68C0
:100D1000B3F1FF3F05D0094B1B781A46FB6813441B
:100D2000FB6000BFFFF7DEFF0246BB68D21AFB681C
:100D30009A42F7D300BF1037BD4680BD080000209F
:100D400080B485B000AF78607B6803F00703FB6078
:100D50000C4BDB68BB60BA684FF6FF031340BB6007
:100D6000FB681A02BB68134343F0BF6343F40033CC
:100D7000BB60044ABB68D36000BF1437BD465DF852
:100D8000047B704700ED00E080B400AF044BDB68EB
:100D90001B0A03F007031846BD465DF8047B704745
:100DA00000ED00E080B483B000AF0346FB7197F91B
:100DB0000730002B0BDB094997F907305B09FA79FB
:100DC00002F01F02012000FA02F241F8232000BFC6
:100DD0000C37BD465DF8047B704700BF00E100E0C2
:100DE00080B483B000AF03463960FB7197F90730D8
:100DF000002B0ADB0D4997F907303A68D2B212018D
:100E0000D2B20B4483F800230AE00949FB7903F0CE
:100E10000F03043B3A68D2B21201D2B20B441A76E5
:100E200000BF0C37BD465DF8047B704700E100E071
:100E300000ED00E080B489B000AFF860B9607A607E
:100E4000FB6803F00703FB61FB69C3F10703042B95
:100E500028BF0423BB61FB690433062B02D9FB695D
:100E6000033B00E000237B610122BB6902FA03F32C
:100E70005A1EBB681A407B699A4001217B6901FABE
:100E800003F3591E7B680B40134318462437BD46B5
:100E90005DF8047B7047000080B582B000AF7860D9
:100EA0007B68013BB3F1807F01D301230FE00A4A45
:100EB0007B68013B53600F214FF0FF30FFF790FF3D
:100EC000054B00229A60044B07221A600023184643
:100ED0000837BD4680BD00BF10E000E080B582B09D
:100EE00000AF78607868FFF72BFF00BF0837BD467A
:100EF00080BD80B586B000AF0346B9607A60FB73F1
:100F000000237B61FFF740FF78617A68B9687869F0
:100F1000FFF790FF024697F90F3011461846FFF78A
:100F20005FFF00BF1837BD4680BD80B582B000AFFF
:100F30000346FB7197F907301846FFF733FF00BFF0
:100F40000837BD4680BD80B582B000AF7860786854
:100F5000FFF7A2FF034618460837BD4680BD0000D4
:100F600080B487B000AF7860396000237B6166E1B0
:100F70003B681A6801217B6901FA03F31340FB60A7
:100F8000FB68002B00F058813B685B6803F00303AB
:100F9000012B05D03B685B6803F00303022B30D1C3
:100FA0007B689B683B617B695B00032202FA03F369
:100FB000DB433A6913403B613B68DA687B695B005D
:100FC00002FA03F33A6913433B617B683A699A601A
:100FD0007B685B683B6101227B6902FA03F3DB43B8
:100FE0003A6913403B613B685B681B0903F00102EF
:100FF0007B6902FA03F33A6913433B617B683A6900
:101000005A603B685B6803F00303032B17D07B68CF
:10101000DB683B617B695B00032202FA03F3DB437D
:101020003A6913403B613B689A687B695B0002FA4E
:1010300003F33A6913433B617B683A69DA603B68C2
:101040005B6803F00303022B23D17B69DA087B681A
:10105000083253F822303B617B6903F007039B00A1
:101060000F2202FA03F3DB433A6913403B613B680A
:101070001A697B6903F007039B0002FA03F33A69DC
:1010800013433B617B69DA087B680832396943F8AE
:1010900022107B681B683B617B695B00032202FABC
:1010A00003F3DB433A6913403B613B685B6803F041
:1010B00003027B695B0002FA03F33A6913433B6165
:1010C0007B683A691A603B685B6803F44033002B25
:1010D00000F0B280614A614B1B6E43F0010313665E
:1010E0005E4B1B6E03F00103BB60BB685C4A7B690F
:1010F0009B08023352F823303B617B6903F0030302
:101100009B000F2202FA03F3DB433A6913403B6171
:101110007B68B3F1904F2BD07B68524A934225D025
:101120007B68514A93421FD07B68504A934219D042
:101130007B684F4A934213D07B684E4A93420DD04E
:101140007B684D4A934207D07B684C4A934201D159
:1011500007230EE008230CE006230AE0052308E03D
:10116000042306E0032304E0022302E0012300E05D
:1011700000237A6902F00302920093403A69134314
:101180003B6137497B699B0802333A6941F8232068
:101190003B4B9B683B61FB68DB433A6913403B6117
:1011A0003B685B6803F48013002B03D03A69FB684B
:1011B00013433B61324A3B699360314BDB683B61CF
:1011C000FB68DB433A6913403B613B685B6803F4AF
:1011D0000013002B03D03A69FB6813433B61284A94
:1011E0003B69D360264B5B683B61FB68DB433A6934
:1011F00013403B613B685B6803F40033002B03D072
:101200003A69FB6813433B611D4A3B6953601C4BC1
:101210001B683B61FB68DB433A6913403B613B68F9
:101220005B6803F48033002B03D03A69FB681343F7
:101230003B61134A3B6913607B6901337B613B6807
:101240001A687B6922FA03F3002B7FF491AE00BF8A
:101250001C37BD465DF8047B704700BF001002409C
:10126000000001400004004800080048000C00484D
:10127000001000480014004800180048001C0048F6
:101280000004014080B483B000AF78600B467B80DF
:1012900013467B707B78002B03D07A887B689A6139
:1012A00002E07A887B689A6200BF0C37BD465DF821
:1012B000047B7047F0B58FB00AAF78607B68002B75
:1012C00001D1012354E07B681B68FB607B6893F8C5
:1012D000F932DBB2002B06D17B68002283F8F822BA
:1012E000786806F02BFF7B68032283F8F922FB68FD
:1012F000DB6B03F48073002B02D17B6800221A6140
:101300007B681B68184603F047FC7B681B683B60E2
:101310007E686D4606F110040FCC0FC50FCC0FC5CB
:1013200094E8030085E80300331D0ECB386803F012
:10133000F6FB7B681B680121184603F03EFC7B68C6
:101340001B683B607E686D4606F110040FCC0FC52C
:101350000FCC0FC594E8030085E80300331D0ECBC6
:10136000386803F0C1FD7B68012283F8F92200236D
:1013700018461437BD46F0BD90B589B004AF78600B
:10138000084611461A460346FB700B46BB701346CF
:101390007B707B6893F8F832012B01D1022376E051
:1013A0007B68012283F8F822FB787A682C2101FB04
:1013B00003F313443D3300221A70FB787A682C2122
:1013C00001FB03F3134438337A781A70FB787A6898
:1013D0002C2101FB03F3134440333A8D1A80FB7830
:1013E0007A682C2101FB03F313443933FA781A701D
:1013F000FB787A682C2101FB03F313443F3397F801
:1014000024201A70FB78BA7802F07F02D0B27A6892
:101410002C2101FB03F313443A3302461A7097F967
:101420000230002B09DAFB787A682C2101FB03F3E8
:1014300013443B3301221A7008E0FB787A682C21B0
:1014400001FB03F313443B3300221A70FB787A68E4
:101450002C2101FB03F313443C3397F820201A702E
:101460007B6818687C78BA78F9783B8D029397F896
:101470002430019397F820300093234603F084FE34
:101480000346FB737B68002283F8F822FB7B184637
:101490001437BD4690BD80B584B000AF78600B4670
:1014A000FB700023FB737B6893F8F832012B01D1AA
:1014B00002230FE07B68012283F8F8227B681B6817
:1014C000FA781146184604F07EF87B68002283F80B
:1014D000F822FB7B18461037BD4680BD80B582B030
:1014E00000AF7860084611461A460346FB700B466B
:1014F000BB7013467B70FB787A682C2101FB03F3E9
:1015000013443B33BA781A70FB787A682C2101FBBC
:1015100003F313443F337A781A703B7C002B12D1CB
:10152000FB787A682C2101FB03F313444233032236
:101530001A70FB787A682C2101FB03F313443D33C6
:101540003A7F1A7008E0FB787A682C2101FB03F3DC
:101550001344423302221A707B78032B00F2C680B8
:1015600001A252F823F000BF79150008D91600082F
:10157000DD1500085B1600083B7C012B40F0B880AD
:10158000BB78002B40F0B4803B8B002B08D1FB785C
:101590007A682C2101FB03F31344553301221A709E
:1015A000FB787A682C2101FB03F3134455331B7835
:1015B000002B09D1FB787A682C2101FB03F313443B
:1015C000423300221A7093E0FB787A682C2101FBE9
:1015D00003F31344423302221A7089E0BB78002BD4
:1015E0001DD1FB787A682C2101FB03F3134455339A
:1015F0001B78002B09D1FB787A682C2101FB03F3BF
:101600001344423300221A7073E0FB787A682C216D
:1016100001FB03F31344423302221A7069E0FB78A2
:101620007A682C2101FB03F3134454331B78002BFD
:1016300009D1FB787A682C2101FB03F31344423370
:1016400000221A7055E0FB787A682C2101FB03F325
:101650001344423302221A704BE0BB78002B1DD199
:10166000FB787A682C2101FB03F3134455331B7874
:10167000002B09D1FB787A682C2101FB03F313447A
:10168000423300221A7034E0FB787A682C2101FB87
:1016900003F31344423302221A702AE0FB787A687B
:1016A0002C2101FB03F3134454331B78002B09D185
:1016B000FB787A682C2101FB03F3134442330022A8
:1016C0001A7016E0FB787A682C2101FB03F31344AF
:1016D000423302221A700CE0FB787A682C2101FB5D
:1016E00003F31344423300221A7002E000BF00E00B
:1016F00000BFFB787A682C2101FB03F313444433C9
:101700007A691A60FB783A8B79682C2000FB03F326
:101710000B444C331A60FB787A682C2101FB03F3ED
:101720001344603300221A70FB787A682C2101FB85
:1017300003F31344503300221A60FB787A682C219B
:1017400001FB03F313443933FA781A70FB787A6893
:101750002C2101FB03F31344613300221A707B68D0
:101760001868FB782C2202FB03F338337A681344A1
:10177000194603F01BFE034618460837BD4680BDD8
:1017800080B586B000AF78607B681B683B613B69C1
:10179000FB607B681B68184603F064FB0346012B63
:1017A00040F0F6807B681B68184603F048FB034650
:1017B000002B00F0EC807B681B68184603F03FFBB1
:1017C000034603F40013B3F5001F04D17B681B68C4
:1017D0004FF400125A617B681B68184603F02FFB18
:1017E000034603F48013B3F5801F04D17B681B68A4
:1017F0004FF480125A617B681B68184603F01FFB88
:10180000034603F08063B3F1806F04D17B681B68EB
:101810004FF080625A617B681B68184603F00FFB2B
:10182000034603F00203022B03D17B681B680222EC
:101830005A617B681B68184603F001FB034603F0FE
:101840000053B3F1005F1CD17B681B684FF000525E
:101850005A61FB6803F588631B6803F00103002BE2
:101860000FD11021386903F0F5F9386903F026FA31
:101870007B681B680121184603F0BAFB786806F004
:101880001DFD7B681B68184603F0D9FA034603F078
:101890008073B3F1807F02D1786801F018F87B681B
:1018A0001B68184603F0CBFA034603F00803082B25
:1018B00006D1786806F0E6FC7B681B6808225A614E
:1018C0007B681B68184603F0BAFA034603F010035E
:1018D000102B01D1012300E00023002B12D07B68E4
:1018E0001B687A681268926922F010029A6178681F
:1018F00000F01CFF7B681B687A681268926942F0EE
:1019000010029A617B681B68184603F098FA034638
:1019100003F00073B3F1007F3AD17B681B6818466F
:1019200003F040FEB86000237B6125E07B6903F093
:101930000F03BA6822FA03F303F00103002B18D057
:101940007B695A01FB68134403F5A0631B6803F429
:101950000043B3F5004F06D17B69DBB219467868C6
:1019600000F0ABF805E07B69DBB21946786800F05F
:10197000DAFB7B6901337B617B689A687B699A42F9
:10198000D4D87B681B684FF000725A6100E000BF3A
:101990001837BD4680BD80B582B000AF78607B68E7
:1019A00093F8F832012B01D1022313E07B68012266
:1019B00083F8F8227B681B680121184603F080FB3E
:1019C0007B681B68184603F0D6F87B68002283F812
:1019D000F822002318460837BD4680BD80B582B086
:1019E00000AF78607B6893F8F832012B01D10223B5
:1019F0000DE07B68012283F8F8227B681B6818469B
:101A000003F0E5FE7B68002283F8F82200231846E5
:101A10000837BD4680BD80B582B000AF78607B6876
:101A20001B68184603F020FB034618460837BD46DE
:101A300080BD80B483B000AF78600B46FB70FB784C
:101A40007A682C2101FB03F3134460331B7818469A
:101A50000C37BD465DF8047B704780B483B000AF9F
:101A600078600B46FB70FB787A682C2101FB03F34E
:101A7000134450331B6818460C37BD465DF8047B91
:101A8000704780B582B000AF78607B681B681846ED
:101A900003F068FB034618460837BD4680BD80B595
:101AA00082B000AF78607B681B68184603F043FB88
:101AB000034618460837BD4680BD80B586B000AFE6
:101AC00078600B46FB707B681B687B617B693B61C0
:101AD000FB78FB60FB685A013B69134403F5A06384
:101AE0009B6803F00403042B1AD1FB685A013B697D
:101AF000134403F5A0631A46042393607A68FB68D5
:101B00002C2101FB03F31344613306221A707B6816
:101B10001B68FA68D2B21146184603F054FDAFE0D4
:101B2000FB685A013B69134403F5A0639B6803F407
:101B30008073B3F5807F1BD1FB685A013B69134466
:101B400003F5A0631A464FF4807393607A68FB68CC
:101B50002C2101FB03F31344613307221A707B68C5
:101B60001B68FA68D2B21146184603F02CFD87E0D4
:101B7000FB685A013B69134403F5A0639B6803F0BB
:101B80002003202B09D1FB685A013B69134403F55C
:101B9000A0631A462023936072E0FB685A013B69F8
:101BA000134403F5A0639B6803F00803082B1AD1C4
:101BB000FB685A013B69134403F5A0631A460823E6
:101BC00093607A68FB682C2101FB03F313446133B3
:101BD00005221A707B681B68FA68D2B21146184653
:101BE00003F0F1FC4CE0FB685A013B69134403F538
:101BF000A0639B6803F48063B3F5806F1BD1FB681F
:101C00005A013B69134403F5A0631A464FF48063FD
:101C100093607A68FB682C2101FB03F31344613362
:101C200008221A707B681B68FA68D2B211461846FF
:101C300003F0C9FC24E0FB685A013B69134403F537
:101C4000A0639B6803F08003802B19D1FB685A01C5
:101C50003B69134403F5A0631A46802393607A68B6
:101C6000FB682C2101FB03F31344613306221A7035
:101C70007B681B68FA68D2B21146184603F0A3FCD1
:101C8000FB685A013B69134403F5A0639B6803F4A6
:101C90000073B3F5007F12D17B681B68FA68D2B27B
:101CA0001146184603F08FFCFB685A013B69134448
:101CB00003F5A0631A464FF4007393602FE2FB68AC
:101CC0005A013B69134403F5A0639B6803F00103C9
:101CD000012B40F0C3807A68FB682C2101FB03F3E1
:101CE0001344613301221A707A68FB682C2101FBCE
:101CF00003F313445C3300221A60FB685A013B690A
:101D0000134403F5A0631A46012393607A68FB68C5
:101D10002C2101FB03F313443F331B78002B09D024
:101D20007A68FB682C2101FB03F313443F331B78D3
:101D3000022B11D17B681B68FA68D2B21146184693
:101D400003F041FCFB685A013B69134403F5A063AF
:101D50001A46102393603CE07A68FB682C2101FB53
:101D600003F313443F331B78032B09D07A68FB68D5
:101D70002C2101FB03F313443F331B78012B28D1A3
:101D8000FB685A013B69134403F5A0631946FB68DD
:101D90005A013B69134403F5A0631B6843F00053E9
:101DA0000B607A68FB682C2101FB03F3134460335A
:101DB00001221A70FB68D8B27A68FB682C2101FBFB
:101DC00003F3134460331B781A460146786806F023
:101DD00083FA7B681B69012B2BD17A68FB682C2165
:101DE00001FB03F3134448331B687968FA682C201D
:101DF00000FB02F20A4440321288B3FBF2F303F014
:101E00000103002B00F08B817A68FB682C2101FB19
:101E100003F3134454331B7883F00103D8B27A6878
:101E2000FB682C2101FB03F31344543302461A7060
:101E300075E17A68FB682C2101FB03F313445433EA
:101E40001B7883F00103D8B27A68FB682C2101FB70
:101E500003F31344543302461A7060E1FB685A01DD
:101E60003B69134403F5A0639B6803F00203022B54
:101E700040F0F7807A68FB682C2101FB03F31344E0
:101E800061331B78012B09D17A68FB682C2101FB97
:101E900003F31344603301221A70C9E07A68FB68C7
:101EA0002C2101FB03F3134461331B78052B09D16B
:101EB0007A68FB682C2101FB03F31344603305228D
:101EC0001A70B5E07A68FB682C2101FB03F3134418
:101ED00061331B78062B09D07A68FB682C2101FB43
:101EE00003F3134461331B78082B50D17A68FB68E5
:101EF0002C2101FB03F313445C331B685A1C7968E3
:101F0000FB682C2000FB03F30B445C331A607A68F7
:101F1000FB682C2101FB03F313445C331B68022B89
:101F200012D97A68FB682C2101FB03F313445C335C
:101F300000221A607A68FB682C2101FB03F313442A
:101F4000603304221A7073E07A68FB682C2101FB6D
:101F500003F31344603302221A70FB685A013B6991
:101F6000134403F5A0631B68BB60BB6823F0804388
:101F7000BB60BB6843F00043BB60FB685A013B6930
:101F8000134403F5A0631A46BB68136050E07A68F7
:101F9000FB682C2101FB03F3134461331B78032BF3
:101FA00022D17A68FB682C2101FB03F313446033D0
:101FB00002221A70FB685A013B69134403F5A063BF
:101FC0001B68BB60BB6823F08043BB60BB6843F009
:101FD0000043BB60FB685A013B69134403F5A063EF
:101FE0001A46BB68136023E07A68FB682C2101FB6A
:101FF00003F3134461331B78072B19D17A68FB680C
:102000002C2101FB03F313445C331B685A1C7968D1
:10201000FB682C2000FB03F30B445C331A607A68E6
:10202000FB682C2101FB03F31344603304221A7074
:10203000FB685A013B69134403F5A0631A46022367
:102040009360FB68D8B27A68FB682C2101FB03F32C
:10205000134460331B781A460146786806F03CF951
:102060005DE0FB685A013B69134403F5A0639B687C
:1020700003F01003102B52D17A68FB682C2101FB6E
:1020800003F313443F331B78032B11D17A68FB68A9
:102090002C2101FB03F313445C3300221A607B689C
:1020A0001B68FA68D2B21146184603F08CFA2DE08C
:1020B0007A68FB682C2101FB03F313443F331B7840
:1020C000002B09D07A68FB682C2101FB03F3134431
:1020D0003F331B78022B19D17A68FB682C2101FB56
:1020E00003F313445C3300221A607A68FB682C21E6
:1020F00001FB03F31344613303221A707B681B68EE
:10210000FA68D2B21146184603F05DFAFB685A012C
:102110003B69134403F5A0631A461023936000BF84
:102120001837BD4680BD80B588B000AF78600B46DB
:10213000FB707B681B68FB61FB69BB61FB787B61A3
:102140007B695A01BB69134403F5A0639B6803F0E4
:102150000403042B1AD17B695A01BB69134403F5AC
:10216000A0631A46042393607A687B692C2101FBE3
:1021700003F31344613306221A707B681B687A6983
:10218000D2B21146184603F01EFACBE27B695A011F
:10219000BB69134403F5A0639B6803F02003202B65
:1021A0002ED17B695A01BB69134403F5A0631A461B
:1021B000202393607A687B692C2101FB03F313448D
:1021C0003D331B78012B40F0AD827A687B692C216E
:1021D00001FB03F313443D3300221A707A687B69D4
:1021E0002C2101FB03F31344603302221A707B6835
:1021F0001B687A69D2B21146184603F0E4F991E2FD
:102200007B695A01BB69134403F5A0639B6803F41F
:102210000073B3F5007F12D17B695A01BB69134487
:1022200003F5A0631A464FF4007393607B681B6844
:102230007A69D2B21146184603F0C5F972E27B6999
:102240005A01BB69134403F5A0639B6803F00103C3
:10225000012B40D17A687B692C2101FB03F31344E5
:102260005C3300221A607B695A01BB69134403F591
:10227000A0639B6803F04003402B11D17A687B690F
:102280002C2101FB03F313443D3301221A707B69B7
:102290005A01BB69134403F5A0631A4640239360B7
:1022A0007B695A01BB69134403F5A0631A460123F5
:1022B00093607A687B692C2101FB03F3134461333B
:1022C00001221A707B681B687A69D2B211461846DF
:1022D00003F079F926E27B695A01BB69134403F5DF
:1022E000A0639B6803F04003402B2CD17A687B6984
:1022F0002C2101FB03F31344613304221A707A6822
:102300007B692C2101FB03F313443D3301221A7036
:102310007A687B692C2101FB03F313445C330022B0
:102320001A607B681B687A69D2B21146184603F0BE
:102330004AF97B695A01BB69134403F5A0631A4645
:1023400040239360EEE17B695A01BB69134403F5B6
:10235000A0639B6803F00803082B1AD17B695A011C
:10236000BB69134403F5A0631A46082393607A6897
:102370007B692C2101FB03F31344613305221A709E
:102380007B681B687A69D2B21146184603F01BF9C4
:10239000C8E17B695A01BB69134403F5A0639B68DC
:1023A00003F01003102B23D17A687B692C2101FBE9
:1023B00003F313445C3300221A607A687B692C2192
:1023C00001FB03F31344613303221A707B681B681B
:1023D0007A69D2B21146184603F0F5F87B695A01C2
:1023E000BB69134403F5A0631A461023936099E177
:1023F0007B695A01BB69134403F5A0639B6803F032
:102400008003802B1AD17A687B692C2101FB03F3AE
:102410001344613306221A707B681B687A69D2B252
:102420001146184603F0CFF87B695A01BB69134483
:1024300003F5A0631A468023936073E17B695A0118
:10244000BB69134403F5A0639B6803F48063B3F591
:10245000806F1BD17A687B692C2101FB03F3134445
:10246000613308221A707B681B687A69D2B2114600
:10247000184603F0A8F87B695A01BB69134403F5B9
:10248000A0631A464FF4806393604BE17B695A0165
:10249000BB69134403F5A0639B6803F00203022B9E
:1024A00040F040817A687B692C2101FB03F31344DF
:1024B00061331B78012B7DD17A687B692C2101FB6C
:1024C00003F31344603301221A707A687B692C216C
:1024D00001FB03F313443F331B78022B0AD07A68C5
:1024E0007B692C2101FB03F313443F331B78032B3F
:1024F00040F000817B681B69002B13D17A687B69EF
:102500002C2101FB03F3134455331B7883F00103A3
:10251000D8B27A687B692C2101FB03F3134455334D
:1025200002461A707B681B69012B40F0E3807A68D1
:102530007B692C2101FB03F313444C331B68002BF4
:1025400000F0D8807A687B692C2101FB03F31344E7
:102550004C331B6879687A692C2000FB02F20A442C
:10256000403212881344013B79687A692C2000FBC1
:1025700002F20A4440321288B3FBF2F33B613B693A
:1025800003F00103002B00F0B5807A687B692C21F1
:1025900001FB03F3134455331B7883F00103D8B2D6
:1025A0007A687B692C2101FB03F3134455330246FF
:1025B0001A709FE07A687B692C2101FB03F31344B6
:1025C00061331B78032B09D17A687B692C2101FBCD
:1025D00003F31344603302221A708BE07A687B693C
:1025E0002C2101FB03F3134461331B78042B09D125
:1025F0007A687B692C2101FB03F3134460330222C8
:102600001A7077E07A687B692C2101FB03F313448D
:1026100061331B78052B09D17A687B692C2101FB7A
:1026200003F31344603305221A7063E07A687B6910
:102630002C2101FB03F3134461331B78062B09D0D3
:102640007A687B692C2101FB03F3134461331B7807
:10265000082B4FD17A687B692C2101FB03F31344CB
:102660005C331B685A1C79687B692C2000FB03F3E0
:102670000B445C331A607A687B692C2101FB03F3FD
:1026800013445C331B68022B12D97A687B692C21B6
:1026900001FB03F313445C3300221A607A687B6900
:1026A0002C2101FB03F31344603304221A7021E050
:1026B0007A687B692C2101FB03F313446033022207
:1026C0001A707B695A01BB69134403F5A0631B6848
:1026D000FB60FB6823F08043FB60FB6843F0004332
:1026E000FB607B695A01BB69134403F5A0631A467A
:1026F000FB6813607B695A01BB69134403F5A0634F
:102700001A46022393607B69D8B27A687B692C21D0
:1027100001FB03F3134460331B781A4601467868C3
:1027200005F0DAFD00BF2037BD4680BD80B58AB018
:1027300000AF78607B681B687B627B6A3B627B686A
:102740001B681B6AFB61FB6903F00F03BB61FB693C
:102750005B0C03F00F037B61FB691B09C3F30A03E6
:102760003B617B69022B03D0052B00F0A980AAE016
:102770003B69002B00F0A6807A68BB692C2101FB25
:1027800003F3134444331B68002B00F09B807A68EA
:10279000BB692C2101FB03F3134450331A683B69D6
:1027A0001A447968BB692C2000FB03F30B444C33BB
:1027B0001B689A427AD87B6818687A68BB692C21B2
:1027C00001FB03F3134444331B683A6992B2194680
:1027D00002F0DEFA7A68BB692C2101FB03F3134493
:1027E00044331A683B691A447968BB692C2000FBA2
:1027F00003F30B4444331A607A68BB692C2101FB54
:1028000003F3134450331A683B691A447968BB696F
:102810002C2000FB03F30B4450331A60BB695A01B0
:102820003B6A134403F5A0631B69DB0CC3F3090384
:10283000FB607A68BB692C2101FB03F3134440332E
:102840001B881A463B699A423CD1FB68002B39D061
:10285000BB695A013B6A134403F5A0631B68BB6064
:10286000BB6823F08043BB60BB6843F00043BB60A0
:10287000BB695A013B6A134403F5A0631A46BB685F
:1028800013607A68BB692C2101FB03F313445433B2
:102890001B7883F00103D8B27A68BB692C2101FB55
:1028A00003F31344543302461A700BE07A68BB6991
:1028B0002C2101FB03F31344603304221A7001E05E
:1028C00000BF00E000BF00BF2837BD4680BD80B517
:1028D00086B000AF78607B681B687B617B693B6179
:1028E0003B6903F588631B68FB603B6903F58863FC
:1028F0001B68BB60BB6823F02E03BB60FB6803F062
:102900000203022B0BD1FB6803F00103012B02D160
:10291000786805F0C5FCBB6843F00203BB60FB6848
:1029200003F00803082B32D1BB6843F00803BB60F7
:10293000FB6803F00403042B26D17B689B69022B00
:1029400013D1FB6803F4C023B3F5802F06D17B6855
:102950001B680221184602F04BFB11E07B681B68E4
:102960000121184602F044FB0AE07B68DB68012B7A
:1029700006D13B6903F580631A464EF66023536027
:10298000786805F0B7FC02E0786805F0C1FCFB68E8
:1029900003F02003202B03D1BB6843F02003BB606E
:1029A0003B6903F588631A46BB68136000BF18379C
:1029B000BD4680BD80B400AF054A054B1B6843F49B
:1029C0008073136000BFBD465DF8047B704700BF95
:1029D0000070004080B400AF044B1B6803F4C06378
:1029E0001846BD465DF8047B704700BF007000408C
:1029F00080B485B000AF78607B68B3F5007F30D1DC
:102A0000234B1B6803F4C063B3F5007F38D0204A22
:102A10001F4B1B6823F4C06343F4007313601D4B0A
:102A20001B68322202FB03F31B4AA2FB03239B0C0D
:102A30000133FB6002E0FB68013BFB60144B5B6908
:102A400003F48063B3F5806F02D1FB68002BF2D1F1
:102A50000F4B5B6903F48063B3F5806F10D10323E0
:102A60000FE00B4B1B6803F4C063B3F5806F07D016
:102A7000074A074B1B6823F4C06343F48063136069
:102A8000002318461437BD465DF8047B704700BF2D
:102A9000007000400000002083DE1B4380B400AFC4
:102AA000054A054B5B6843F48063536000BFBD4635
:102AB0005DF8047B704700BF0070004080B400AF39
:102AC000054A054B5B6843F40073536000BFBD4685
:102AD0005DF8047B704700BF0070004080B588B08F
:102AE00000AF78607B68002B02D1012300F004BCAA
:102AF000A04B9B6803F00C03BB619E4BDB6803F0AB
:102B000003037B617B681B6803F01003002B00F05C
:102B1000E480BB69002B07D0BB690C2B40F08B8095
:102B20007B69012B40F08780924B1B6803F0020306
:102B3000002B05D07B689B69002B01D10123DBE3CF
:102B40007B681A6A8B4B1B6803F00803002B04D0C8
:102B5000884B1B6803F0F00305E0864BD3F89430F4
:102B60001B0903F0F0039A4223D97B681B6A1846BD
:102B700000F08EFD0346002B01D00123BCE37D4A0B
:102B80007C4B1B6843F0080313607A49794B1B6840
:102B900023F0F0027B681B6A13430B607549754B89
:102BA0005B6823F47F427B68DB691B0213434B6045
:102BB00025E0704A6F4B1B6843F0080313606D49B2
:102BC0006C4B1B6823F0F0027B681B6A13430B609D
:102BD0006849684B5B6823F47F427B68DB691B02B2
:102BE00013434B60BB69002B09D17B681B6A1846F5
:102BF00000F04EFD0346002B01D001237CE300F0E2
:102C000085FC01465B4B9B681B0903F00F035A4A86
:102C1000D35C03F01F0321FA03F3584A1360584BA7
:102C20001B681846FEF70EF80346FB73FB7B002B70
:102C300052D0FB7B60E37B689B69002B32D04D4A0E
:102C40004C4B1B6843F001031360FEF74BF83861EF
:102C500008E0FEF747F802463B69D31A022B01D978
:102C6000032349E3434B1B6803F00203002BF0D01E
:102C7000404A404B1B6843F0080313603D493D4BFD
:102C80001B6823F0F0027B681B6A13430B60394911
:102C9000384B5B6823F47F427B68DB691B0213437C
:102CA0004B601AE0334A334B1B6823F00103136077
:102CB000FEF718F8386108E0FEF714F802463B69A1
:102CC000D31A022B01D9032316E32A4B1B6803F006
:102CD0000203002BF0D100E000BF7B681B6803F00B
:102CE0000103002B73D0BB69082B05D0BB690C2BEB
:102CF0000ED17B69032B0BD11E4B1B6803F40033F1
:102D0000002B63D07B685B68002B5FD10123F3E26B
:102D10007B685B68B3F5803F06D1164A154B1B688C
:102D200043F4803313601DE07B685B68B3F5A02F2C
:102D30000CD1104A0F4B1B6843F4802313600D4ADB
:102D40000C4B1B6843F4803313600BE0094A094BBA
:102D50001B6823F480331360064A064B1B6823F478
:102D6000802313607B685B68002B1BD0FDF7BAFFE4
:102D7000386110E000100240E09F000800000020D1
:102D800004000020FDF7AEFF02463B69D31A642B16
:102D900001D90323B0E2AF4B1B6803F40033002BCF
:102DA000F0D014E0FDF79EFF386108E0FDF79AFFD0
:102DB00002463B69D31A642B01D903239CE2A54B3D
:102DC0001B6803F40033002BF0D100E000BF7B68E8
:102DD0001B6803F00203002B60D0BB69042B05D0F5
:102DE000BB690C2B19D17B69022B16D1994B1B683F
:102DF00003F48063002B05D07B68DB68002B01D1D6
:102E0000012379E29349934B5B6823F0FE427B6890
:102E10001B691B0613434B6040E07B68DB68002B9B
:102E200023D08C4A8B4B1B6843F480731360FDF7EF
:102E300059FF386108E0FDF755FF02463B69D31A98
:102E4000022B01D9032357E2824B1B6803F48063F2
:102E5000002BF0D07F497F4B5B6823F0FE427B68FC
:102E60001B691B0613434B6018E07A4A794B1B68B9
:102E700023F480731360FDF735FF386108E0FDF738
:102E800031FF02463B69D31A022B01D9032333E2F7
:102E9000704B1B6803F48063002BF0D17B681B68C8
:102EA00003F00803002B3CD07B685B69002B1CD02F
:102EB000684A684BD3F8943043F00103C2F8943069
:102EC000FDF710FF386108E0FDF70CFF02463B6993
:102ED000D31A022B01D903230EE25E4BD3F89430B0
:102EE00003F00203002BEFD01BE05A4A594BD3F8F2
:102EF000943023F00103C2F89430FDF7F3FE3861FB
:102F000008E0FDF7EFFE02463B69D31A022B01D918
:102F10000323F1E14F4BD3F8943003F00203002B6D
:102F2000EFD17B681B6803F00403002B00F0A68040
:102F30000023FB77474B9B6D03F08053002B0DD193
:102F4000444A444B9B6D43F080539365414B9B6DCA
:102F500003F08053BB60BB680123FB773E4B1B68CB
:102F600003F48073002B18D13B4A3B4B1B6843F49E
:102F700080731360FDF7B6FE386108E0FDF7B2FE1E
:102F800002463B69D31A022B01D90323B4E1324B29
:102F90001B6803F48073002BF0D07B689B68012BC7
:102FA00008D12C4A2B4BD3F8903043F00103C2F8E0
:102FB000903024E07B689B68052B10D1254A254B77
:102FC000D3F8903043F00403C2F89030214A214BEB
:102FD000D3F8903043F00103C2F890300FE01D4A5F
:102FE0001C4BD3F8903023F00103C2F89030194AFB
:102FF000184BD3F8903023F00403C2F890307B686C
:103000009B68002B16D0FDF76DFE38610AE0FDF7D6
:1030100069FE02463B69D31A41F28832934201D9D4
:10302000032369E10B4BD3F8903003F00203002B2C
:10303000EDD01AE0FDF756FE38610FE0FDF752FEC5
:1030400002463B69D31A41F28832934206D90323E0
:1030500052E100BF0010024000700040A84BD3F8BE
:10306000903003F00203002BE8D1FB7F012B05D148
:10307000A34AA34B9B6D23F0805393657B681B6829
:1030800003F02003002B3CD07B685B6A002B1CD034
:103090009B4A9B4BD3F8983043F00103C2F8983019
:1030A000FDF720FE386108E0FDF71CFE02463B6993
:1030B000D31A022B01D903231EE1914BD3F8983088
:1030C00003F00203002BEFD01BE08D4A8C4BD3F8AA
:1030D000983023F00103C2F89830FDF703FE386101
:1030E00008E0FDF7FFFD02463B69D31A022B01D928
:1030F000032301E1824BD3F8983003F00203002B45
:10310000EFD17B689B6A002B00F0F5807B689B6A9F
:10311000022B40F0CB807A4BDB687B617B6903F04C
:1031200003027B68DB6A9A422CD17B6903F0700250
:103130007B681B6B013B1B019A4223D17B6903F423
:10314000FE427B685B6B1B029A421BD17B6903F0DA
:1031500078427B689B6BDB069A4213D17B6903F450
:10316000C0027B68DB6B5B08013B5B059A4209D1BF
:103170007B6903F0C0627B681B6C5B08013B5B06EC
:103180009A426DD0BB690C2B68D05D4B1B6803F075
:103190008063002B05D15A4B1B6803F08053002B32
:1031A00001D00123A8E0564A554B1B6823F08073D9
:1031B0001360FDF797FD386108E0FDF793FD0246C7
:1031C0003B69D31A022B01D9032395E04C4B1B68B2
:1031D00003F00073002BF0D14948494BDA68494BA2
:1031E00013407A68D16A7A68126B013A120111436E
:1031F0007A68526B120211437A68D26B5208013A14
:10320000520511437A68126C5208013A5206114372
:103210007A68926BD2060A431343C360384A384B2C
:103220001B6843F080731360354A354BDB6843F00D
:103230008073D360FDF756FD386108E0FDF752FD5D
:1032400002463B69D31A022B01D9032354E02C4BCD
:103250001B6803F00073002BF0D04CE001234BE01F
:10326000274B1B6803F00073002B44D1244A244BE6
:103270001B6843F080731360214A214BDB6843F0E5
:103280008073D360FDF72EFD386108E0FDF72AFD5D
:1032900002463B69D31A022B01D903232CE0184BB9
:1032A0001B6803F00073002BF0D024E0BB690C2BEB
:1032B0001FD0134A124B1B6823F080731360FDF775
:1032C00011FD386108E0FDF70DFD02463B69D31A98
:1032D000022B01D903230FE0094B1B6803F0007395
:1032E000002BF0D10649064BDA68074B1340CB6040
:1032F00001E0012300E0002318462037BD4680BDD1
:10330000001002408C809D01FCFFEEFE80B584B071
:1033100000AF786039607B68002B01D10123E7E0C2
:10332000754B1B6803F007023B689A4210D2724942
:10333000714B1B6823F007023B6813430B606E4B15
:103340001B6803F007023B689A4201D00123CFE0DB
:103350007B681B6803F00203002B10D07B689A681F
:10336000664B9B6803F0F0039A4208D96349634BAC
:103370009B6823F0F0027B689B6813438B607B683B
:103380001B6803F00103002B4CD07B685B68032BA8
:1033900007D15A4B1B6803F00073002B21D1012386
:1033A000A6E07B685B68022B07D1544B1B6803F4D3
:1033B0000033002B15D101239AE07B685B68002B5A
:1033C00007D14E4B1B6803F00203002B09D10123E8
:1033D0008EE04A4B1B6803F48063002B01D101236C
:1033E00086E04649454B9B6823F003027B685B6897
:1033F00013438B60FDF776FCF8600AE0FDF772FC82
:103400000246FB68D31A41F28832934201D9032362
:103410006EE03A4B9B6803F00C027B685B689B0094
:103420009A42EBD17B681B6803F00203002B10D09B
:103430007B689A68314B9B6803F0F0039A4208D28C
:103440002E492E4B9B6823F0F0027B689B68134348
:103450008B60294B1B6803F007023B689A4210D926
:103460002549254B1B6823F007023B6813430B607B
:10347000214B1B6803F007023B689A4201D00123ED
:1034800036E07B681B6803F00403002B08D01B495F
:103490001A4B9B6823F4E0627B68DB6813438B6004
:1034A0007B681B6803F00803002B09D01349134BFA
:1034B0009B6823F460527B681B69DB0013438B60BD
:1034C00000F024F801460D4B9B681B0903F00F0325
:1034D0000B4AD35C03F01F0321FA03F3094A13607C
:1034E000094B1B681846FDF7ADFB0346FB72FB7AE0
:1034F00018461037BD4680BD002002400010024033
:10350000E09F0008000000200400002080B489B083
:1035100000AF0023FB610023BB613D4B9B6803F0C0
:103520000C033B613A4BDB6803F00303FB603B6930
:10353000002B05D03B690C2B21D1FB68012B1ED140
:10354000334B1B6803F00803002B07D1304BD3F833
:1035500094301B0A03F00F03FB6105E02C4B1B6842
:103560001B0903F00F03FB612A4AFB6952F8233061
:10357000FB613B69002B0DD1FB69BB610AE03B6934
:10358000042B02D1244BBB6104E03B69082B01D121
:10359000224BBB613B690C2B33D11D4BDB6803F025
:1035A0000303BB60BB68022B02D0032B03D005E0F2
:1035B000194B7B6105E0194B7B6102E0FB697B6184
:1035C00000BF134BDB681B0903F0070301337B606B
:1035D0000F4BDB681B0A03F07F037A6902FB03F2DF
:1035E0007B68B2FBF3F37B61094BDB685B0E03F096
:1035F000030301335B003B607A693B68B2FBF3F382
:10360000BB61BB6918462437BD465DF8047B704733
:1036100000100240F89F00080024F40000127A0015
:1036200080B400AF034B1B681846BD465DF8047BB1
:10363000704700BF0000002080B500AFFFF7F0FF2B
:103640000146064B9B681B0A03F00703044AD35C40
:1036500003F01F0321FA03F3184680BD0010024057
:10366000F09F000880B500AFFFF7DAFF0146064B78
:103670009B68DB0A03F00703044AD35C03F01F03D3
:1036800021FA03F3184680BD00100240F09F0008A5
:1036900080B586B000AF786000233B612A4B9B6DFC
:1036A00003F08053002B03D0FFF794F9786114E006
:1036B000254A254B9B6D43F080539365224B9B6DB0
:1036C00003F08053FB60FB68FFF784F978611E4AC2
:1036D0001D4B9B6D23F0805393657B69B3F5007F91
:1036E0000BD17B68802B19D97B68A02B02D90223D0
:1036F0003B6113E001233B6110E07B68802B02D922
:1037000003233B610AE07B68802B02D102233B61EB
:1037100004E07B68702B01D101233B610B490B4B0B
:103720001B6823F007023B6913430B60074B1B68C0
:1037300003F007023B699A4201D0012300E0002315
:1037400018461837BD4680BD0010024000200240D8
:1037500080B586B000AF78600023FB740023BB7493
:103760007B681B6803F40063002B3FD07B689B6E73
:10377000B3F5800F1CD0B3F5800F02D8002B0ED00C
:103780001FE0B3F5000F03D0B3F5400F1CD018E0D5
:10379000854A854BDB6843F48033D36015E07B6852
:1037A00004330021184600F0DBFA0346FB740CE0FA
:1037B0007B6820330021184600F0C2FB0346FB74EF
:1037C00003E00123FB7400E000BFFB7C002B0BD166
:1037D0007549754BD3F8883023F440027B689B6EA3
:1037E0001343C1F8883001E0FB7CBB747B681B6825
:1037F00003F48053002B3FD07B68DB6EB3F1807FF6
:103800001CD0B3F1807F02D8002B0ED01FE0B3F1A3
:10381000007F03D0B3F1407F1CD018E0624A624BB6
:10382000DB6843F48033D36015E07B680433002108
:10383000184600F095FA0346FB740CE07B682033D1
:103840000021184600F07CFB0346FB7403E00123D3
:10385000FB7400E000BFFB7C002B0BD15249524BA4
:10386000D3F8883023F040727B68DB6E1343C1F8D5
:10387000883001E0FB7CBB747B681B6803F4003379
:10388000002B00F0A08000237B74474B9B6D03F05E
:103890008053002B01D1012300E00023002B0DD029
:1038A000414A414B9B6D43F0805393653E4B9B6D6A
:1038B00003F08053BB60BB6801237B743B4A3B4BE6
:1038C0001B6843F480731360FDF70CFAF86009E09D
:1038D000FDF708FA0246FB68D31A022B02D903232C
:1038E000FB7405E0314B1B6803F48073002BEFD0B1
:1038F000FB7C002B5CD12C4BD3F8903003F440734D
:103900007B617B69002B1FD07B68D3F888207B69A3
:103910009A4219D0244BD3F8903023F440737B6142
:10392000214A214BD3F8903043F48033C2F89030D1
:103930001D4A1D4BD3F8903023F48033C2F89030E9
:10394000194A7B69C2F890307B6903F00103002BB0
:1039500016D0FDF7C7F9F8600BE0FDF7C3F9024692
:10396000FB68D31A41F28832934202D90323FB74D5
:1039700006E00D4BD3F8903003F00203002BECD09F
:10398000FB7C002B0CD10849074BD3F8903023F473
:1039900040727B68D3F888301343C1F8903009E057
:1039A000FB7CBB7406E000BF0010024000700040CA
:1039B000FB7CBB747B7C012B05D1A64AA54B9B6D80
:1039C00023F0805393657B681B6803F00103002B91
:1039D0000AD0A0499F4BD3F8883023F003027B68BC
:1039E0009B6B1343C1F888307B681B6803F00203AC
:1039F000002B0AD09749974BD3F8883023F00C025C
:103A00007B68DB6B1343C1F888307B681B6803F06D
:103A10000403002B0AD08F498E4BD3F8883023F053
:103A200030027B681B6C1343C1F888307B681B68CD
:103A300003F00803002B0AD08649864BD3F8883060
:103A400023F0C0027B685B6C1343C1F888307B684D
:103A50001B6803F01003002B0AD07E497D4BD3F87E
:103A6000883023F440727B689B6C1343C1F8883024
:103A70007B681B6803F02003002B0AD07549754B47
:103A8000D3F8883023F440627B68DB6C1343C1F8C1
:103A900088307B681B6803F40073002B0AD06D49E3
:103AA0006C4BD3F8883023F440227B681B6E1343A1
:103AB000C1F888307B681B6803F48063002B0AD050
:103AC0006449644BD3F8883023F440127B685B6E02
:103AD0001343C1F888307B681B6803F04003002B58
:103AE0000AD05C495B4BD3F8883023F440527B68A2
:103AF0001B6D1343C1F888307B681B6803F080039B
:103B0000002B0AD05349534BD3F8883023F440425A
:103B10007B685B6D1343C1F888307B681B6803F4D6
:103B20008073002B0AD04B494A4BD3F8883023F4DA
:103B300040327B689B6D1343C1F888307B681B68FB
:103B400003F48013002B0AD04249424BD3F89C3037
:103B500023F003027B68DB6D1343C1F89C307B6864
:103B60001B6803F40053002B28D03A49394BD3F893
:103B7000883023F040627B681B6F1343C1F88830A4
:103B80007B681B6FB3F1006F06D1324A314BDB68A3
:103B900043F48013D36011E07B681B6FB3F1806F37
:103BA0000CD17B6804330121184600F0D9F8034694
:103BB000FB74FB7C002B01D0FB7CBB747B681B6817
:103BC00003F40023002B28D02249224BD3F888305D
:103BD00023F040627B685B6F1343C1F888307B68D9
:103BE0005B6FB3F1006F06D11A4A1A4BDB6843F4DE
:103BF0008013D36011E07B685B6FB3F1806F0CD1F1
:103C00007B6804330121184600F0AAF80346FB74D0
:103C1000FB7C002B01D0FB7CBB747B681B6803F42E
:103C20008023002B2AD00B490A4BD3F8883023F08D
:103C300040627B689B6F1343C1F888307B689B6F41
:103C4000B3F1006F08D1034A024BDB6843F48013E1
:103C5000D36013E0001002407B689B6FB3F1806F6C
:103C60000CD17B6804330121184600F079F8034633
:103C7000FB74FB7C002B01D0FB7CBB747B681B6856
:103C800003F48043002B2FD02C492C4BD3F88830E1
:103C900023F040527B68DB6F1343C1F888307B68A8
:103CA000DB6FB3F1805F0DD17B68043302211846CE
:103CB00000F056F80346FB74FB7C002B14D0FB7C11
:103CC000BB7411E07B68DB6FB3F1005F0CD17B68E4
:103CD00020330221184600F033F90346FB74FB7CC5
:103CE000002B01D0FB7CBB747B681B6803F4004392
:103CF000002B0BD01149114BD3F8883023F08042B0
:103D00007B68D3F880301343C1F888307B681B6828
:103D100003F48033002B0BD00849084BD3F88830CC
:103D200023F000427B68D3F884301343C1F8883015
:103D3000BB7C18461837BD4680BD00BF001002404E
:103D400080B400AF054A054B1B6843F004031360C1
:103D500000BFBD465DF8047B704700BF0010024005
:103D600080B584B000AF786039600023FB73734B7B
:103D7000DB6803F00303002B18D0704BDB6803F003
:103D800003027B681B689A420DD17B681B68002B7D
:103D900009D06A4BDB681B0903F007035A1C7B68D8
:103DA0005B689A4244D00123FB7341E07B681B6847
:103DB000022B0CD0032B13D0012B20D15F4B1B689F
:103DC00003F00203002B1DD10123FB731AE05B4BB0
:103DD0001B6803F48063002B16D10123FB7313E0EF
:103DE000564B1B6803F40033002B0FD1534B1B6859
:103DF00003F48023002B09D10123FB7306E0012388
:103E0000FB7304E000BF02E000BF00E000BFFB7BEB
:103E1000002B0DD14948494BDB6823F073027B68C6
:103E200019687B685B68013B1B010B431343C3604C
:103E3000FB7B002B7CD1414A404B1B6823F0806305
:103E40001360FCF74FFFB86009E0FCF74BFF024638
:103E5000BB68D31A022B02D90323FB7305E0374B4F
:103E60001B6803F00063002BEFD1FB7B002B5FD1BD
:103E70003B68002B10D13148304B1B6923F078434D
:103E800023F4FE437A68926811027A68D268D206F7
:103E90000A431343036127E03B68012B12D12748F3
:103EA000264B1B6923F4C00323F4FE437A6892680F
:103EB00011027A6812695208013A52050A43134303
:103EC000036111E01D481D4B1B6923F0C06323F4FF
:103ED000FE437A68926811027A6852695208013A80
:103EE00052060A4313430361144A144B1B6843F000
:103EF00080631360FCF7F6FEB86009E0FCF7F2FEA1
:103F00000246BB68D31A022B02D90323FB7305E0D8
:103F10000A4B1B6803F00063002BEFD0FB7B002BE8
:103F200006D10649054B1A697B689B6913430B61EF
:103F3000FB7B18461037BD4680BD00BF0010024015
:103F400080B584B000AF786039600023FB73684BA4
:103F5000DB6803F00303002B18D0654BDB6803F02C
:103F600003027B681B689A420DD17B681B68002B9B
:103F700009D05F4BDB681B0903F007035A1C7B6801
:103F80005B689A4244D00123FB7341E07B681B6865
:103F9000022B0CD0032B13D0012B20D1544B1B68C8
:103FA00003F00203002B1DD10123FB731AE0504BD9
:103FB0001B6803F48063002B16D10123FB7313E00D
:103FC0004B4B1B6803F40033002B0FD1484B1B688D
:103FD00003F48023002B09D10123FB7306E00123A6
:103FE000FB7304E000BF02E000BF00E000BFFB7B0A
:103FF000002B0DD13E483E4BDB6823F073027B68FB
:1040000019687B685B68013B1B010B431343C3606A
:10401000FB7B002B66D1364A354B1B6823F080535F
:104020001360FCF75FFEB86009E0FCF75BFE024638
:10403000BB68D31A022B02D90323FB7305E02C4B78
:104040001B6803F00053002BEFD1FB7B002B49D101
:104050003B68002B10D12648254B5B6923F0784341
:1040600023F4FE437A68926811027A68D268D20615
:104070000A431343436111E01D481D4B5B6923F064
:10408000C06323F4FE437A68926811027A68126969
:104090005208013A52060A4313434361144A144B2F
:1040A0001B6843F080531360FCF71CFEB86009E006
:1040B000FCF718FE0246BB68D31A022B02D9032371
:1040C000FB7305E00A4B1B6803F00053002BEFD095
:1040D000FB7B002B06D10649054B5A697B685B695F
:1040E00013434B61FB7B18461037BD4680BD00BFB4
:1040F0000010024080B582B000AF78607B68002B72
:1041000001D1012340E07B689B6F002B06D17B68C7
:10411000002283F874207868FCF75AFC7B6824221C
:104120009A677B681B687A681268126822F001023D
:104130001A60786800F0C0F80346012B01D1012312
:1041400022E07B685B6A002B02D0786800F038FBC5
:104150007B681B687A681268526822F490425A6041
:104160007B681B687A681268926822F02A029A605B
:104170007B681B687A681268126842F001021A6054
:10418000786800F0BFFB034618460837BD4680BD7F
:1041900080B58AB002AFF860B9603B601346FB801F
:1041A000FB689B6F202B40F08280BB68002B02D005
:1041B000FB88002B01D101237AE0FB6893F874306F
:1041C000012B01D1022373E0FB68012283F87420E4
:1041D000FB680022C3F88020FB6821229A67FCF765
:1041E00081FD7861FB68FA88A3F85020FB68FA88A3
:1041F000A3F85220FB689B68B3F5805F08D1FB6889
:104200001B69002B04D10023FB61BB68BB6103E089
:10421000BB68FB610023BB61FB68002283F874204C
:104220002DE03B6800937B6900228021F86800F054
:10423000B2FB0346002B01D0032339E0FB69002BBE
:104240000BD1FB681B68BA691288C2F3080292B2EC
:104250001A85BB690233BB6108E0FB681B68FA6919
:10426000127892B21A85FB690133FB61FB68B3F8DF
:1042700052309BB2013B9AB2FB68A3F85220FB6814
:10428000B3F852309BB2002BCBD13B6800937B69D3
:1042900000224021F86800F07EFB0346002B01D08D
:1042A000032305E0FB6820229A67002300E0022335
:1042B00018462037BD4680BDB0B588B000AF7860E5
:1042C0000023BB767B689A687B681B691A437B680E
:1042D0005B691A437B68DB691343FB617B681A687F
:1042E0007B681B681968AC4B0B40F9690B43136082
:1042F0007B681B687A681268526822F440517A68B9
:10430000D2680A435A607B689B69FB617B681B68C3
:10431000A24A934204D07B681B6AFA691343FB618B
:104320007B681B687A681268926822F43061FA69C7
:104330000A439A607B681B68994A934222D1994B41
:10434000D3F8883003F00303032B17D801A252F8E7
:1043500023F000BF65430008714300086B43000869
:10436000774300080123FB76E8E00223FB76E5E0D3
:104370000423FB76E2E00823FB76DFE01023FB76E4
:1043800000BFDBE07B681B68874A934234D1854BD2
:10439000D3F8883003F00C030C2B29D801A252F873
:1043A00023F000BFD9430008F1430008F14300089F
:1043B000F1430008E5430008F1430008F143000819
:1043C000F1430008DF430008F1430008F14300080F
:1043D000F1430008EB4300080023FB76AEE0022324
:1043E000FB76ABE00423FB76A8E00823FB76A5E090
:1043F0001023FB7600BFA1E07B681B686B4A9342E9
:1044000020D1684BD3F8883003F03003102B0FD045
:10441000102B02D8002B05D010E0202B05D0302B1C
:1044200009D00BE00023FB7688E00223FB7685E0D1
:104430000423FB7682E00823FB767FE01023FB76E3
:1044400000BF7BE07B681B68594A934220D1554BE3
:10445000D3F8883003F0C003402B0FD0402B02D894
:10446000002B05D010E0802B05D0C02B09D00BE02D
:104470000023FB7662E00223FB765FE00423FB76F9
:104480005CE00823FB7659E01023FB7600BF55E083
:104490007B681B68474A934224D1424BD3F888304B
:1044A00003F44073B3F5807F12D0B3F5807F02D858
:1044B000002B07D012E0B3F5007F06D0B3F5407FA4
:1044C00009D00BE00023FB7638E00223FB7635E0D1
:1044D0000423FB7632E00823FB762FE01023FB76E3
:1044E00000BF2BE07B681B682C4A934224D12D4BE4
:1044F000D3F8883003F44063B3F5806F12D0B3F57E
:10450000806F02D8002B07D012E0B3F5006F06D001
:10451000B3F5406F09D00BE00023FB760EE00223D9
:10452000FB760BE00423FB7608E00823FB7605E02E
:104530001023FB7600BF01E01023FB767B681B682D
:10454000164A934240F08080FB7E082B36D801A2A9
:1045500052F823F079450008BD4500088145000860
:10456000BD45000887450008BD450008BD45000859
:10457000BD4500088F450008FFF75EF8786122E02E
:104580000D4B7B611FE0FEF7C1FF78611BE04FF42C
:1045900000437B6117E000BFF369FFEF008000403C
:1045A0000038014000100240004400400048004034
:1045B000004C0040005000400024F40000237B61C8
:1045C0000123BB7600BF7B69002B00F0EB807B688A
:1045D0005A6813465B001A447B699A4205D87B6887
:1045E0005B681A037B699A4202D20123BB76D9E049
:1045F0007B691A464FF000031D0245EA126514025A
:104600007B685B685B081A464FF00003A01845EB17
:1046100003017B685B684FF000041A462346FBF7F2
:104620003FFE03460C463B613B69B3F5407F08D330
:104630003B69B3F5801F04D27B681B683A69DA6076
:10464000B0E00123BB76ADE07B68DB69B3F5004FDA
:104650005BD1FB7E082B28D801A252F823F000BFC3
:10466000854600088D46000895460008AB460008C0
:104670009B460008AB460008AB460008AB46000866
:10468000A3460008FEF7D8FF786113E0FEF7EAFFC3
:1046900078610FE0494B7B610CE0FEF737FF7861F2
:1046A00008E04FF400437B6104E000237B610123B9
:1046B000BB7600BF7B69002B74D07B695A007B6896
:1046C0005B685B081A447B685B68B2FBF3F33B6191
:1046D0003B690F2B16D93B69B3F5803F12D23B697A
:1046E0009BB223F00F03FB813B695B089BB203F095
:1046F00007039AB2FB891343FB817B681B68FA8925
:10470000DA604FE00123BB764CE0FB7E082B28D813
:1047100001A252F823F000BF3D47000845470008BA
:104720004D470008634700085347000863470008E7
:1047300063470008634700085B470008FEF77CFFFB
:10474000786113E0FEF78EFF78610FE01B4B7B6111
:104750000CE0FEF7DBFE786108E04FF400437B617C
:1047600004E000237B610123BB7600BF7B69002B43
:1047700018D07B685B685A087B691A447B685B6861
:10478000B2FBF3F33B613B690F2B09D93B69B3F5EE
:10479000803F05D27B681B683A6992B2DA6001E01B
:1047A0000123BB767B6800225A667B6800229A66EA
:1047B000BB7E18462037BD46B0BD00BF0024F400C4
:1047C00080B483B000AF78607B685B6A03F001035C
:1047D000002B0AD07B681B687A681268526822F442
:1047E00000317A68926A0A435A607B685B6A03F018
:1047F0000203002B0AD07B681B687A681268526833
:1048000022F480317A68D26A0A435A607B685B6A14
:1048100003F00403002B0AD07B681B687A681268D7
:10482000526822F480217A68126B0A435A607B68CE
:104830005B6A03F00803002B0AD07B681B687A6868
:104840001268526822F400417A68526B0A435A6037
:104850007B685B6A03F01003002B0AD07B681B683F
:104860007A681268926822F480517A68926B0A43DF
:104870009A607B685B6A03F02003002B0AD07B6898
:104880001B687A681268926822F400517A68D26BC9
:104890000A439A607B685B6A03F04003002B1AD0DE
:1048A0007B681B687A681268526822F480117A6803
:1048B000126C0A435A607B681B6CB3F5801F0AD1E7
:1048C0007B681B687A681268526822F4C0017A68B3
:1048D000526C0A435A607B685B6A03F08003002BCA
:1048E0000AD07B681B687A681268526822F400213B
:1048F0007A68926C0A435A6000BF0C37BD465DF877
:10490000047B704780B586B002AF78607B68002278
:10491000C3F88020FCF7E6F9F8607B681B681B6829
:1049200003F00803082B0ED16FF07E430093FB6861
:1049300000224FF40011786800F02DF80346002B98
:1049400001D0032323E07B681B681B6803F004038A
:10495000042B0ED16FF07E430093FB6800224FF4CE
:104960008001786800F017F80346002B01D003237C
:104970000DE07B6820229A677B682022DA677B68DB
:1049800000221A667B68002283F8742000231846F0
:104990001037BD4680BD80B59CB000AFF860B960EF
:1049A0003B601346FB71A5E0BB6FB3F1FF3F00F026
:1049B000A180FCF797F902463B68D21ABB6F9A4276
:1049C00002D8BB6F002B3ED1FB681B683B653B6D7B
:1049D00053E8003FFB64FB6C23F4D0737B66FB68F9
:1049E0001B681A467B6EFB65BA65B96DFA6D41E8C6
:1049F00000237B657B6D002BE6D1FB681B680833C9
:104A0000FB63FB6B53E8003FBB63BB6B23F001030D
:104A10003B66FB681B6808333A6EBA647B64796C4A
:104A2000BA6C41E800233B643B6C002BE5D1FB688A
:104A300020229A67FB682022DA67FB68002283F84D
:104A40007420032367E0FB681B681B6803F0040302
:104A5000002B4FD0FB681B68DB6903F40063B3F5E0
:104A6000006F47D1FB681B684FF400621A62FB6855
:104A70001B68BB62BB6A53E8003F7B627B6A23F41E
:104A8000D073FB66FB681B681A46FB6E7B633A6358
:104A9000396B7A6B41E80023FB62FB6A002BE6D19D
:104AA000FB681B6808337B617B6953E8003F3B610F
:104AB0003B6923F00103BB66FB681B680833BA6ED1
:104AC0003A62FB61F9693A6A41E80023BB61BB695C
:104AD000002BE5D1FB6820229A67FB682022DA6769
:104AE000FB682022C3F88020FB68002283F8742032
:104AF000032310E0FB681B68DA69BB681A40BB68D7
:104B00009A420CBF01230023DBB21A46FB799A427A
:104B10003FF44AAF002318467037BD4680BD84B0CD
:104B200080B584B000AF786007F11C0080E80E000B
:104B30007B68DB6843F040027B68DA60786800F0ED
:104B40009FF90346FB733B6C002B06D17B689B6B84
:104B500043F480327B689A6305E07B689B6B23F4A7
:104B600080327B689A63FB7B18461037BD46BDE8F0
:104B7000804004B0704780B483B000AF78607B6839
:104B80009B6843F001027B689A60002318460C374B
:104B9000BD465DF8047B704780B483B000AF786099
:104BA0007B689B6823F001027B689A6000231846AB
:104BB0000C37BD465DF8047B704780B584B000AF0C
:104BC00078600B46FB700023FB607B68DB6823F09A
:104BD000C0427B68DA60FB78012B15D17B68DB680B
:104BE00043F000527B68DA600120FCF787F8FB682D
:104BF0000133FB60786800F035F90346012B1ED0C5
:104C0000FB68312BF0D91AE0FB78002B15D17B68BB
:104C1000DB6843F080427B68DA600120FCF76EF8C5
:104C2000FB680133FB60786800F01CF90346002B39
:104C300005D0FB68312BF0D901E0012305E0FB68CA
:104C4000322B01D1012300E0002318461037BD4666
:104C500080BD000080B485B000AF7860396000236B
:104C6000FB60FB680133FB60FB68134A934201D988
:104C700003231BE07B681B69002BF2DA0023FB6037
:104C80003B689B0143F020027B681A61FB6801339B
:104C9000FB60FB68084A934201D9032306E07B6866
:104CA0001B6903F02003202BF0D000231846143793
:104CB000BD465DF8047B7047400D030080B485B0AD
:104CC00000AF78600023FB60FB680133FB60FB688A
:104CD000114A934201D9032318E07B681B69002B1A
:104CE000F2DA0023FB607B6810221A61FB68013353
:104CF000FB60FB68084A934201D9032306E07B6806
:104D00001B6903F01003102BF0D000231846143752
:104D1000BD465DF8047B7047400D030080B489B048
:104D200000AFF860B96011461A460B46FB71134696
:104D3000BB80FB687B61BB68FB61BB8803339B085E
:104D40003B610023BB6118E0FB791A037B691344C4
:104D500003F580531A46FB691B681360FB69013336
:104D6000FB61FB690133FB61FB690133FB61FB699B
:104D70000133FB61BB690133BB61BA693B699A428C
:104D8000E2D3002318462437BD465DF8047B704704
:104D900080B48BB000AFF860B9601346FB80FB684D
:104DA000BB61BB687B62FB889B089BB27B61FB8815
:104DB00003F00303FB8300233B6214E0BB6903F5AC
:104DC00080531A687B6A1A607B6A01337B627B6A54
:104DD00001337B627B6A01337B627B6A01337B62D6
:104DE0003B6A01333B623A6A7B699A42E6D3FB8BAA
:104DF000002B1DD000233B6207F11003BA6902F5B6
:104E0000805212681A603A693B6ADBB2DB0022FA10
:104E100003F3DAB27B6A1A703B6A01333B627B6A46
:104E200001337B62FB8B013BFB83FB8B002BEAD1C5
:104E30007B6A18462C37BD465DF8047B704780B40A
:104E400085B000AF78607B685B69FB607B689B69BD
:104E5000FA681340FB60FB6818461437BD465DF8DE
:104E6000047B704780B483B000AF78607B685B6977
:104E700003F0010318460C37BD465DF8047B70470C
:104E800080B485B000AF78600023FB60FB6801331D
:104E9000FB60FB68134A934201D903231BE07B6844
:104EA0001B69002BF2DA0023FB607B681B6943F06F
:104EB00001027B681A61FB680133FB60FB68094AE9
:104EC000934201D9032306E07B681B6903F00103C9
:104ED000012BF0D0002318461437BD465DF8047B43
:104EE000704700BF400D030084B080B586B000AFAE
:104EF000786007F1240080E80E000023FB757B68D2
:104F0000FB60FB6803F560631A46002313607B684F
:104F10009B6B23F400127B689A637B689B6B23F482
:104F200000327B689A63FB6803F580631A46FB686E
:104F300003F580631B6823F0040313601021786875
:104F4000FFF788FE0346002B01D00123FB7578682C
:104F5000FFF7B4FE0346002B01D00123FB750023AD
:104F60003B6115E03B695A01FB68134403F5A063FC
:104F70001A464FF0FF3393603B695A01FB681344B4
:104F800003F5A0631A460023D3603B6901333B61FC
:104F9000BA6A3B699A42E5D87B6800229A617B68CD
:104FA0004FF0FF325A617B6880225A627B680D4A5B
:104FB0009A627B680C4AC3F800217B689B6943F0C6
:104FC00010027B689A617B689A69084B13437A6880
:104FD0009361FB7D18461837BD46BDE8804004B09C
:104FE000704700BF80006000E0004000080020A380
:104FF00080B485B000AF78600B46FB707B68FB60C7
:10500000FB6803F580631A46FB6803F580631B6841
:1050100023F003031360FB6803F580631946FB6804
:1050200003F580631A68FB7803F0030313430B60F6
:10503000FB78012B07D1FB6803F580631A464BF61A
:105040008033536009E0FB78022B06D1FB6803F53F
:1050500080631A4641F27073536000231846143778
:10506000BD465DF8047B704780B584B000AF7860C2
:105070007B68FB600023BB60FB6803F588631B68EB
:10508000BB60BB6823F02E03BB60FB6803F588633D
:105090001A46BB6843F4807313606420FBF72EFE4E
:1050A000FB6803F588631A46BB6823F480731360BA
:1050B0000A20FBF723FE002318461037BD4680BDAB
:1050C00080B485B000AF78600B46FB707B68FB60F6
:1050D0000023BB60FB6803F588631B68BB60BB688B
:1050E00023F02E03BB60BB6803F48053002B0AD16E
:1050F000FB78012B07D1FB6803F588631A46BB6870
:1051000043F480531360BB6803F48053B3F5805FAE
:105110000AD1FB78002B07D1FB6803F588631A4698
:10512000BB6823F480531360002318461437BD4630
:105130005DF8047B704780B485B000AF78607B6811
:10514000FB600023BB60FB6803F588631B68BB60E2
:10515000BB685B0C03F0030318461437BD465DF8CB
:10516000047B704780B485B000AF78607B68FB60DB
:10517000FB6803F580639B689BB218461437BD46F5
:105180005DF8047B7047000080B588B000AF7860A0
:10519000084611461A460346FB700B46BB70134681
:1051A0007B700023FB777B683B61FB785A013B698E
:1051B000134403F5A0631A464FF0FF33936097F84A
:1051C0002C30032B6AD801A252F823F0DD510008DD
:1051D0005D520008DD5100081D520008FB785A019D
:1051E0003B69134403F5A0631A4640F29D43D36024
:1051F00097F90230002B54DAFB785A013B691344CB
:1052000003F5A0631946FB785A013B69134403F583
:10521000A063DB6843F48073CB6042E0FB785A0103
:105220003B69134403F5A0631A4640F29D63D360C3
:1052300097F90230002B36DAFB785A013B691344A8
:1052400003F5A0631946FB785A013B69134403F543
:10525000A063DB6843F48073CB6024E0FB785A01E1
:105260003B69134403F5A0631A4640F22523D3603B
:1052700097F90230002B18DAFB785A013B69134486
:1052800003F5A0631946FB785A013B69134403F503
:10529000A063DB6843F4C073CB6006E00123FB77B7
:1052A00004E000BF02E000BF00E000BFFB785A014D
:1052B0003B69134403F5A0631946FB785A013B6927
:1052C000134403F5A063DB6843F00203CB603B6942
:1052D00003F5806318463B6903F580639A69FB78A0
:1052E00003F00F03012101FA03F3134383617B6889
:1052F0009B6943F000727B689A6197F90230002B3A
:1053000003DA4FF40043BB6101E00023BB6178681E
:10531000FFF711FFF86097F82830022B06D1FB68E1
:10532000022B03D04FF400337B6101E000237B614B
:10533000FB785A013B69134403F5A06319467B7857
:105340009B0503F0FE52BB78DB0203F4F0431A43E3
:1053500097F82C309B0403F440231A433B8EC3F38D
:105360000A031A43BB691A437B6913430B6097F81E
:105370002C30032B03D097F82C30012B10D1FB7865
:105380005A013B69134403F5A0631946FB785A019F
:105390003B69134403F5A0631B6843F000530B60A3
:1053A000FB7F18462037BD4680BD00BF80B588B062
:1053B00000AF786039607B68BB613B685B787B617C
:1053C0004FF480737B823B685B69002B18D03B688D
:1053D0005B693A6812891344013B3A681289B3FB4E
:1053E000F2F3FB83FA8B7B8A9A420BD97B8AFB838D
:1053F000FB8B3A68128902FB03F23B681A6101E0F9
:105400000123FB833B68DB78002B07D0FB8B3A68DA
:10541000128902FB03F23B681A6103E03B685A6998
:105420003B681A617B695A01BB69134403F5A063A9
:1054300018463B681B69C3F31202FB8BD904584B17
:105440000B401A433B689B7A5B0703F0C04313434E
:105450000361BB6903F580639B6803F00103002BC4
:105460000CBF01230023DBB27B747B695A01BB694B
:10547000134403F5A06319467B695A01BB691344C1
:1054800003F5A0631B6823F000530B607B695A018E
:10549000BB69134403F5A06319467B695A01BB69D4
:1054A000134403F5A0631A687B7C5B0713430B600E
:1054B0007B695A01BB69134403F5A0631B68BB6099
:1054C000BB6823F08043BB603B68DB78002B04D0D3
:1054D000BB6843F40043BB6003E0BB6823F40043B4
:1054E000BB60BB6843F00043BB607B695A01BB698A
:1054F000134403F5A0631A46BB6813603B68DB786E
:10550000002B48D13B685B69002B44D03B68DB79BA
:10551000032B31D801A252F823F000BF2D5500080B
:10552000515500082D550008515500083B685B692E
:1055300003339B08FB81FA897B68DB6A9BB29A4242
:105540001CD97B689B6943F020027B689A6115E057
:105550003B685B6903339B08FB81FA89BB6903F5F0
:1055600080631B699BB29A420AD97B689B6943F0AE
:1055700080627B689A6103E000BF02E000BF00E048
:1055800000BF3B68D9683B685A783B685B699BB24F
:105590007868FFF7C3FB002318462037BD4680BD5F
:1055A0000000F81F80B485B000AF78607B68FB60B6
:1055B000FB6803F580635B699BB218461437BD46F0
:1055C0005DF8047B704780B489B000AF78600B460B
:1055D000FB707B68FB61FB78BB610023FB60BB69F0
:1055E0005A01FB69134403F5A0631B689B0C03F08D
:1055F00003037B61BB695A01FB69134403F5A06394
:105600001B68DB0F03F001033B617B689B6803F0C1
:105610002003202B04D13B69002B01D10023D0E0D3
:105620007B69002B02D07B69022B67D1BB695A01D1
:10563000FB69134403F5A0631946BB695A01FB6972
:10564000134403F5A0631B6843F080430B607B6841
:105650009B6803F02003002B40F0B2807B68DB6A7C
:1056600003F47F03002B35D1BB695A01FB69134456
:1056700003F5A0631946BB695A01FB69134403F59E
:10568000A0631B6823F000430B60BB695A01FB69F0
:10569000134403F5A0631946BB695A01FB6913441F
:1056A00003F5A0631B6843F000430B60FB68013304
:1056B000FB60FB68B3F57A7F1ED8BB695A01FB69B2
:1056C000134403F5A0631B6803F00043B3F1004FDC
:1056D000ECD075E0BB695A01FB69134403F5A06384
:1056E0001946BB695A01FB69134403F5A0631B68A3
:1056F00043F000430B6063E000BF61E0BB695A0107
:10570000FB69134403F5A0631946BB695A01FB69A1
:10571000134403F5A0631B6843F080430B60FB69EF
:1057200003F580631B6903F47F03002B35D1BB694C
:105730005A01FB69134403F5A0631946BB695A017A
:10574000FB69134403F5A0631B6823F000430B605F
:10575000BB695A01FB69134403F5A0631946BB6991
:105760005A01FB69134403F5A0631B6843F000432F
:105770000B60FB680133FB60FB68B3F57A7F1ED8D2
:10578000BB695A01FB69134403F5A0631B6803F06E
:105790000043B3F1004FECD012E0BB695A01FB6942
:1057A000134403F5A0631946BB695A01FB6913440E
:1057B00003F5A0631B6843F000430B6000E000BFEB
:1057C000002318462437BD465DF8047B704780B53A
:1057D00088B000AF78600023FB777B687B61002393
:1057E000FB607868FFF7D8F910217868FFF732FA84
:1057F0000346002B01D00123FB777868FFF75EFAA0
:105800000346002B01D00123FB770023BB611FE07F
:10581000BB695A017B69134403F5A0631B683B61B4
:105820003B6943F080433B613B6923F000433B61AC
:105830003B6923F400433B61BB695A017B69134414
:1058400003F5A0631A463B691360BB690133BB6172
:10585000BB690F2BDCD90023BB6134E0BB695A0163
:105860007B69134403F5A0631B683B613B6943F00C
:1058700080433B613B6943F000433B613B6923F458
:1058800000433B61BB695A017B69134403F5A06384
:105890001A463B691360FB680133FB60FB68B3F594
:1058A0007A7F0CD8BB695A017B69134403F5A06366
:1058B0001B6803F00043B3F1004FECD000E000BFE1
:1058C000BB690133BB61BB690F2BC7D97B6903F58A
:1058D00080631A464FF0FF3353617B684FF0FF320D
:1058E0005A617868FFF747F9FB7F18462037BD46B5
:1058F00080BD000090B58BB004AF78600023FB75CD
:105900007B68D3F87C331979FF230122786800F093
:10591000F9FF0346BB75BB7D0133BB75BB7DFF2B18
:1059200002D0BB7D012B0FD9A64803F009F87B6894
:10593000D3F87C331B681946A34803F001F80A200A
:1059400003F016F8022338E1BB7D1946786800F0B1
:1059500071FF03467B757B7D002B01D002232CE178
:105960007B68D3F87C43342002F026FF0346E361D2
:105970007B68D3F87C33DB693B613B69002B0AD140
:10598000904802F0DDFF914802F0DAFF0A2002F0B1
:10599000EFFF022311E134220021386902F01CFFDD
:1059A0003B6907229A70BB7D7A681A2101FB03F3D9
:1059B000134403F249331B78012B09D1844802F0C8
:1059C000BFFF0A2002F0D4FF3B69824A1A6331E02C
:1059D000BB7D7A681A2101FB03F3134403F24933B8
:1059E0001B78022B09D17C4802F0AAFF0A2002F0A2
:1059F000BFFF3B69794A1A631CE0BB7D7A681A21B4
:105A000001FB03F3134403F249331B78002B09D144
:105A1000734802F095FF0A2002F0AAFF3B696D4A25
:105A20001A6307E06F4802F08BFF0A2002F0A0FF24
:105A30000223C2E03B6900229A703B6900225A713E
:105A4000BB7D7A681A2101FB03F3134403F24E3342
:105A50001A783B699A76BB7D7A681A2101FB03F3B9
:105A6000134403F554731A883B691A83BB7D7A6823
:105A70001A2101FB03F3134403F252331B789AB249
:105A80003B699A833B699B8B092B02D83B690A22AD
:105A90009A83BB7D7A681A2101FB03F3134403F256
:105AA00046331B78022B28BF0223FB730023FB75B0
:105AB0007DE0BB7DF97D7A680131C9001A2000FBC9
:105AC00003F30B44134403F246331B785BB2002B01
:105AD00035DABB7DF97D7A680131C9001A2000FBF7
